{
    "_format": "hh-sol-artifact-1",
    "contractName": "Web3Mint",
    "sourceName": "contracts/Web3Mint.sol",
    "abi": [
        {
            "inputs": [],
            "stateMutability": "nonpayable",
            "type": "constructor"
        },
        {
            "inputs": [
                {
                    "internalType": "address",
                    "name": "sender",
                    "type": "address"
                },
                {
                    "internalType": "uint256",
                    "name": "tokenId",
                    "type": "uint256"
                },
                {
                    "internalType": "address",
                    "name": "owner",
                    "type": "address"
                }
            ],
            "name": "ERC721IncorrectOwner",
            "type": "error"
        },
        {
            "inputs": [
                {
                    "internalType": "address",
                    "name": "operator",
                    "type": "address"
                },
                {
                    "internalType": "uint256",
                    "name": "tokenId",
                    "type": "uint256"
                }
            ],
            "name": "ERC721InsufficientApproval",
            "type": "error"
        },
        {
            "inputs": [
                {
                    "internalType": "address",
                    "name": "approver",
                    "type": "address"
                }
            ],
            "name": "ERC721InvalidApprover",
            "type": "error"
        },
        {
            "inputs": [
                {
                    "internalType": "address",
                    "name": "operator",
                    "type": "address"
                }
            ],
            "name": "ERC721InvalidOperator",
            "type": "error"
        },
        {
            "inputs": [
                {
                    "internalType": "address",
                    "name": "owner",
                    "type": "address"
                }
            ],
            "name": "ERC721InvalidOwner",
            "type": "error"
        },
        {
            "inputs": [
                {
                    "internalType": "address",
                    "name": "receiver",
                    "type": "address"
                }
            ],
            "name": "ERC721InvalidReceiver",
            "type": "error"
        },
        {
            "inputs": [
                {
                    "internalType": "address",
                    "name": "sender",
                    "type": "address"
                }
            ],
            "name": "ERC721InvalidSender",
            "type": "error"
        },
        {
            "inputs": [
                {
                    "internalType": "uint256",
                    "name": "tokenId",
                    "type": "uint256"
                }
            ],
            "name": "ERC721NonexistentToken",
            "type": "error"
        },
        {
            "anonymous": false,
            "inputs": [
                {
                    "indexed": true,
                    "internalType": "address",
                    "name": "owner",
                    "type": "address"
                },
                {
                    "indexed": true,
                    "internalType": "address",
                    "name": "approved",
                    "type": "address"
                },
                {
                    "indexed": true,
                    "internalType": "uint256",
                    "name": "tokenId",
                    "type": "uint256"
                }
            ],
            "name": "Approval",
            "type": "event"
        },
        {
            "anonymous": false,
            "inputs": [
                {
                    "indexed": true,
                    "internalType": "address",
                    "name": "owner",
                    "type": "address"
                },
                {
                    "indexed": true,
                    "internalType": "address",
                    "name": "operator",
                    "type": "address"
                },
                {
                    "indexed": false,
                    "internalType": "bool",
                    "name": "approved",
                    "type": "bool"
                }
            ],
            "name": "ApprovalForAll",
            "type": "event"
        },
        {
            "anonymous": false,
            "inputs": [
                {
                    "indexed": true,
                    "internalType": "address",
                    "name": "from",
                    "type": "address"
                },
                {
                    "indexed": true,
                    "internalType": "address",
                    "name": "to",
                    "type": "address"
                },
                {
                    "indexed": true,
                    "internalType": "uint256",
                    "name": "tokenId",
                    "type": "uint256"
                }
            ],
            "name": "Transfer",
            "type": "event"
        },
        {
            "inputs": [
                {
                    "internalType": "address",
                    "name": "to",
                    "type": "address"
                },
                {
                    "internalType": "uint256",
                    "name": "tokenId",
                    "type": "uint256"
                }
            ],
            "name": "approve",
            "outputs": [],
            "stateMutability": "nonpayable",
            "type": "function"
        },
        {
            "inputs": [
                {
                    "internalType": "address",
                    "name": "owner",
                    "type": "address"
                }
            ],
            "name": "balanceOf",
            "outputs": [
                {
                    "internalType": "uint256",
                    "name": "",
                    "type": "uint256"
                }
            ],
            "stateMutability": "view",
            "type": "function"
        },
        {
            "inputs": [
                {
                    "internalType": "uint256",
                    "name": "tokenId",
                    "type": "uint256"
                }
            ],
            "name": "getApproved",
            "outputs": [
                {
                    "internalType": "address",
                    "name": "",
                    "type": "address"
                }
            ],
            "stateMutability": "view",
            "type": "function"
        },
        {
            "inputs": [
                {
                    "internalType": "address",
                    "name": "owner",
                    "type": "address"
                },
                {
                    "internalType": "address",
                    "name": "operator",
                    "type": "address"
                }
            ],
            "name": "isApprovedForAll",
            "outputs": [
                {
                    "internalType": "bool",
                    "name": "",
                    "type": "bool"
                }
            ],
            "stateMutability": "view",
            "type": "function"
        },
        {
            "inputs": [
                {
                    "internalType": "string",
                    "name": "name",
                    "type": "string"
                },
                {
                    "internalType": "string",
                    "name": "imageURI",
                    "type": "string"
                }
            ],
            "name": "mintIpfsNFT",
            "outputs": [],
            "stateMutability": "nonpayable",
            "type": "function"
        },
        {
            "inputs": [],
            "name": "name",
            "outputs": [
                {
                    "internalType": "string",
                    "name": "",
                    "type": "string"
                }
            ],
            "stateMutability": "view",
            "type": "function"
        },
        {
            "inputs": [
                {
                    "internalType": "uint256",
                    "name": "tokenId",
                    "type": "uint256"
                }
            ],
            "name": "ownerOf",
            "outputs": [
                {
                    "internalType": "address",
                    "name": "",
                    "type": "address"
                }
            ],
            "stateMutability": "view",
            "type": "function"
        },
        {
            "inputs": [
                {
                    "internalType": "address",
                    "name": "from",
                    "type": "address"
                },
                {
                    "internalType": "address",
                    "name": "to",
                    "type": "address"
                },
                {
                    "internalType": "uint256",
                    "name": "tokenId",
                    "type": "uint256"
                }
            ],
            "name": "safeTransferFrom",
            "outputs": [],
            "stateMutability": "nonpayable",
            "type": "function"
        },
        {
            "inputs": [
                {
                    "internalType": "address",
                    "name": "from",
                    "type": "address"
                },
                {
                    "internalType": "address",
                    "name": "to",
                    "type": "address"
                },
                {
                    "internalType": "uint256",
                    "name": "tokenId",
                    "type": "uint256"
                },
                {
                    "internalType": "bytes",
                    "name": "data",
                    "type": "bytes"
                }
            ],
            "name": "safeTransferFrom",
            "outputs": [],
            "stateMutability": "nonpayable",
            "type": "function"
        },
        {
            "inputs": [
                {
                    "internalType": "address",
                    "name": "operator",
                    "type": "address"
                },
                {
                    "internalType": "bool",
                    "name": "approved",
                    "type": "bool"
                }
            ],
            "name": "setApprovalForAll",
            "outputs": [],
            "stateMutability": "nonpayable",
            "type": "function"
        },
        {
            "inputs": [
                {
                    "internalType": "bytes4",
                    "name": "interfaceId",
                    "type": "bytes4"
                }
            ],
            "name": "supportsInterface",
            "outputs": [
                {
                    "internalType": "bool",
                    "name": "",
                    "type": "bool"
                }
            ],
            "stateMutability": "view",
            "type": "function"
        },
        {
            "inputs": [],
            "name": "symbol",
            "outputs": [
                {
                    "internalType": "string",
                    "name": "",
                    "type": "string"
                }
            ],
            "stateMutability": "view",
            "type": "function"
        },
        {
            "inputs": [
                {
                    "internalType": "uint256",
                    "name": "_tokenId",
                    "type": "uint256"
                }
            ],
            "name": "tokenURI",
            "outputs": [
                {
                    "internalType": "string",
                    "name": "",
                    "type": "string"
                }
            ],
            "stateMutability": "view",
            "type": "function"
        },
        {
            "inputs": [
                {
                    "internalType": "address",
                    "name": "from",
                    "type": "address"
                },
                {
                    "internalType": "address",
                    "name": "to",
                    "type": "address"
                },
                {
                    "internalType": "uint256",
                    "name": "tokenId",
                    "type": "uint256"
                }
            ],
            "name": "transferFrom",
            "outputs": [],
            "stateMutability": "nonpayable",
            "type": "function"
        }
    ],
    "bytecode": "0x608060405234801561001057600080fd5b506040518060400160405280600381526020017f4e465400000000000000000000000000000000000000000000000000000000008152506040518060400160405280600381526020017f6e66740000000000000000000000000000000000000000000000000000000000815250816000908161008c9190610438565b50806001908161009c9190610438565b5050506100e36040518060400160405280601881526020017f54686973206973206d79204e465420636f6e74726163742e00000000000000008152506100e860201b60201c565b6105e0565b610184816040516024016100fc919061058f565b6040516020818303038152906040527f41304fac000000000000000000000000000000000000000000000000000000007bffffffffffffffffffffffffffffffffffffffffffffffffffffffff19166020820180517bffffffffffffffffffffffffffffffffffffffffffffffffffffffff838183161783525050505061018760201b60201c565b50565b6101a8816101a36101ab60201b610a4e176101cc60201b60201c565b60201c565b50565b60006a636f6e736f6c652e6c6f679050600080835160208501845afa505050565b6101de60201b611a5a17819050919050565b6101e66105b1565b565b600081519050919050565b7f4e487b7100000000000000000000000000000000000000000000000000000000600052604160045260246000fd5b7f4e487b7100000000000000000000000000000000000000000000000000000000600052602260045260246000fd5b6000600282049050600182168061026957607f821691505b60208210810361027c5761027b610222565b5b50919050565b60008190508160005260206000209050919050565b60006020601f8301049050919050565b600082821b905092915050565b6000600883026102e47fffffffffffffffffffffffffffffffffffffffffffffffffffffffffffffffff826102a7565b6102ee86836102a7565b95508019841693508086168417925050509392505050565b6000819050919050565b6000819050919050565b600061033561033061032b84610306565b610310565b610306565b9050919050565b6000819050919050565b61034f8361031a565b61036361035b8261033c565b8484546102b4565b825550505050565b600090565b61037861036b565b610383818484610346565b505050565b5b818110156103a75761039c600082610370565b600181019050610389565b5050565b601f8211156103ec576103bd81610282565b6103c684610297565b810160208510156103d5578190505b6103e96103e185610297565b830182610388565b50505b505050565b600082821c905092915050565b600061040f600019846008026103f1565b1980831691505092915050565b600061042883836103fe565b9150826002028217905092915050565b610441826101e8565b67ffffffffffffffff81111561045a576104596101f3565b5b6104648254610251565b61046f8282856103ab565b600060209050601f8311600181146104a25760008415610490578287015190505b61049a858261041c565b865550610502565b601f1984166104b086610282565b60005b828110156104d8578489015182556001820191506020850194506020810190506104b3565b868310156104f557848901516104f1601f8916826103fe565b8355505b6001600288020188555050505b505050505050565b600082825260208201905092915050565b60005b8381101561053957808201518184015260208101905061051e565b60008484015250505050565b6000601f19601f8301169050919050565b6000610561826101e8565b61056b818561050a565b935061057b81856020860161051b565b61058481610545565b840191505092915050565b600060208201905081810360008301526105a98184610556565b905092915050565b7f4e487b7100000000000000000000000000000000000000000000000000000000600052605160045260246000fd5b612b4e806105ef6000396000f3fe608060405234801561001057600080fd5b50600436106100ea5760003560e01c806370a082311161008c578063b88d4fde11610066578063b88d4fde1461025b578063c87b56dd14610277578063e985e9c5146102a7578063eb00195d146102d7576100ea565b806370a08231146101f157806395d89b4114610221578063a22cb4651461023f576100ea565b8063095ea7b3116100c8578063095ea7b31461016d57806323b872dd1461018957806342842e0e146101a55780636352211e146101c1576100ea565b806301ffc9a7146100ef57806306fdde031461011f578063081812fc1461013d575b600080fd5b61010960048036038101906101049190611ad0565b6102f3565b6040516101169190611b18565b60405180910390f35b6101276103d5565b6040516101349190611bc3565b60405180910390f35b61015760048036038101906101529190611c1b565b610467565b6040516101649190611c89565b60405180910390f35b61018760048036038101906101829190611cd0565b610483565b005b6101a3600480360381019061019e9190611d10565b610499565b005b6101bf60048036038101906101ba9190611d10565b61059b565b005b6101db60048036038101906101d69190611c1b565b6105bb565b6040516101e89190611c89565b60405180910390f35b61020b60048036038101906102069190611d63565b6105cd565b6040516102189190611d9f565b60405180910390f35b610229610687565b6040516102369190611bc3565b60405180910390f35b61025960048036038101906102549190611de6565b610719565b005b61027560048036038101906102709190611f5b565b61072f565b005b610291600480360381019061028c9190611c1b565b610754565b60405161029e9190611bc3565b60405180910390f35b6102c160048036038101906102bc9190611fde565b6108f9565b6040516102ce9190611b18565b60405180910390f35b6102f160048036038101906102ec91906120bf565b61098d565b005b60007f80ac58cd000000000000000000000000000000000000000000000000000000007bffffffffffffffffffffffffffffffffffffffffffffffffffffffff1916827bffffffffffffffffffffffffffffffffffffffffffffffffffffffff191614806103be57507f5b5e139f000000000000000000000000000000000000000000000000000000007bffffffffffffffffffffffffffffffffffffffffffffffffffffffff1916827bffffffffffffffffffffffffffffffffffffffffffffffffffffffff1916145b806103ce57506103cd82610a6f565b5b9050919050565b6060600080546103e490612166565b80601f016020809104026020016040519081016040528092919081815260200182805461041090612166565b801561045d5780601f106104325761010080835404028352916020019161045d565b820191906000526020600020905b81548152906001019060200180831161044057829003601f168201915b5050505050905090565b600061047282610ad9565b5061047c82610b61565b9050919050565b6104958282610490610b9e565b610ba6565b5050565b600073ffffffffffffffffffffffffffffffffffffffff168273ffffffffffffffffffffffffffffffffffffffff160361050b5760006040517f64a0ae920000000000000000000000000000000000000000000000000000000081526004016105029190611c89565b60405180910390fd5b600061051f838361051a610b9e565b610bb8565b90508373ffffffffffffffffffffffffffffffffffffffff168173ffffffffffffffffffffffffffffffffffffffff1614610595578382826040517f64283d7b00000000000000000000000000000000000000000000000000000000815260040161058c93929190612197565b60405180910390fd5b50505050565b6105b68383836040518060200160405280600081525061072f565b505050565b60006105c682610ad9565b9050919050565b60008073ffffffffffffffffffffffffffffffffffffffff168273ffffffffffffffffffffffffffffffffffffffff16036106405760006040517f89c62b640000000000000000000000000000000000000000000000000000000081526004016106379190611c89565b60405180910390fd5b600360008373ffffffffffffffffffffffffffffffffffffffff1673ffffffffffffffffffffffffffffffffffffffff168152602001908152602001600020549050919050565b60606001805461069690612166565b80601f01602080910402602001604051908101604052809291908181526020018280546106c290612166565b801561070f5780601f106106e45761010080835404028352916020019161070f565b820191906000526020600020905b8154815290600101906020018083116106f257829003601f168201915b5050505050905090565b61072b610724610b9e565b8383610dd2565b5050565b61073a848484610499565b61074e610745610b9e565b85858585610f41565b50505050565b6060600680549050821061079d576040517f08c379a00000000000000000000000000000000000000000000000000000000081526004016107949061221a565b60405180910390fd5b6000600683815481106107b3576107b261223a565b5b906000526020600020906002020160000180546107cf90612166565b80601f01602080910402602001604051908101604052809291908181526020018280546107fb90612166565b80156108485780601f1061081d57610100808354040283529160200191610848565b820191906000526020600020905b81548152906001019060200180831161082b57829003601f168201915b505050505090506000600684815481106108655761086461223a565b5b90600052602060002090600202016001016040516020016108869190612358565b604051602081830303815290604052905060006108cd836108a6876110f2565b846040516020016108b993929190612501565b6040516020818303038152906040526111c0565b9050806040516020016108e091906125aa565b6040516020818303038152906040529350505050919050565b6000600560008473ffffffffffffffffffffffffffffffffffffffff1673ffffffffffffffffffffffffffffffffffffffff16815260200190815260200160002060008373ffffffffffffffffffffffffffffffffffffffff1673ffffffffffffffffffffffffffffffffffffffff16815260200190815260200160002060009054906101000a900460ff16905092915050565b6000600754905061099e33826111ed565b6006604051806040016040528085815260200184815250908060018154018082558091505060019003906000526020600020906002020160009091909190915060008201518160000190816109f39190612763565b506020820151816001019081610a099190612763565b505050610a2f604051806060016040528060258152602001612ab460259139823361120b565b600160076000828254610a429190612864565b92505081905550505050565b60006a636f6e736f6c652e6c6f679050600080835160208501845afa505050565b60007f01ffc9a7000000000000000000000000000000000000000000000000000000007bffffffffffffffffffffffffffffffffffffffffffffffffffffffff1916827bffffffffffffffffffffffffffffffffffffffffffffffffffffffff1916149050919050565b600080610ae5836112aa565b9050600073ffffffffffffffffffffffffffffffffffffffff168173ffffffffffffffffffffffffffffffffffffffff1603610b5857826040517f7e273289000000000000000000000000000000000000000000000000000000008152600401610b4f9190611d9f565b60405180910390fd5b80915050919050565b60006004600083815260200190815260200160002060009054906101000a900473ffffffffffffffffffffffffffffffffffffffff169050919050565b600033905090565b610bb383838360016112e7565b505050565b600080610bc4846112aa565b9050600073ffffffffffffffffffffffffffffffffffffffff168373ffffffffffffffffffffffffffffffffffffffff1614610c0657610c058184866114ac565b5b600073ffffffffffffffffffffffffffffffffffffffff168173ffffffffffffffffffffffffffffffffffffffff1614610c9757610c486000856000806112e7565b6001600360008373ffffffffffffffffffffffffffffffffffffffff1673ffffffffffffffffffffffffffffffffffffffff168152602001908152602001600020600082825403925050819055505b600073ffffffffffffffffffffffffffffffffffffffff168573ffffffffffffffffffffffffffffffffffffffff1614610d1a576001600360008773ffffffffffffffffffffffffffffffffffffffff1673ffffffffffffffffffffffffffffffffffffffff168152602001908152602001600020600082825401925050819055505b846002600086815260200190815260200160002060006101000a81548173ffffffffffffffffffffffffffffffffffffffff021916908373ffffffffffffffffffffffffffffffffffffffff160217905550838573ffffffffffffffffffffffffffffffffffffffff168273ffffffffffffffffffffffffffffffffffffffff167fddf252ad1be2c89b69c2b068fc378daa952ba7f163c4a11628f55a4df523b3ef60405160405180910390a4809150509392505050565b600073ffffffffffffffffffffffffffffffffffffffff168273ffffffffffffffffffffffffffffffffffffffff1603610e4357816040517f5b08ba18000000000000000000000000000000000000000000000000000000008152600401610e3a9190611c89565b60405180910390fd5b80600560008573ffffffffffffffffffffffffffffffffffffffff1673ffffffffffffffffffffffffffffffffffffffff16815260200190815260200160002060008473ffffffffffffffffffffffffffffffffffffffff1673ffffffffffffffffffffffffffffffffffffffff16815260200190815260200160002060006101000a81548160ff0219169083151502179055508173ffffffffffffffffffffffffffffffffffffffff168373ffffffffffffffffffffffffffffffffffffffff167f17307eab39ab6107e8899845ad3d59bd9653f200f220920489ca2b5937696c3183604051610f349190611b18565b60405180910390a3505050565b60008373ffffffffffffffffffffffffffffffffffffffff163b11156110eb578273ffffffffffffffffffffffffffffffffffffffff1663150b7a02868685856040518563ffffffff1660e01b8152600401610fa094939291906128ed565b6020604051808303816000875af1925050508015610fdc57506040513d601f19601f82011682018060405250810190610fd9919061294e565b60015b611060573d806000811461100c576040519150601f19603f3d011682016040523d82523d6000602084013e611011565b606091505b50600081510361105857836040517f64a0ae9200000000000000000000000000000000000000000000000000000000815260040161104f9190611c89565b60405180910390fd5b805160208201fd5b63150b7a0260e01b7bffffffffffffffffffffffffffffffffffffffffffffffffffffffff1916817bffffffffffffffffffffffffffffffffffffffffffffffffffffffff1916146110e957836040517f64a0ae920000000000000000000000000000000000000000000000000000000081526004016110e09190611c89565b60405180910390fd5b505b5050505050565b60606000600161110184611570565b01905060008167ffffffffffffffff8111156111205761111f611e30565b5b6040519080825280601f01601f1916602001820160405280156111525781602001600182028036833780820191505090505b509050600082602083010190505b6001156111b5578080600190039150507f3031323334353637383961626364656600000000000000000000000000000000600a86061a8153600a85816111a9576111a861297b565b5b04945060008503611160575b819350505050919050565b60606111e682604051806060016040528060408152602001612ad96040913960016116c3565b9050919050565b611207828260405180602001604052806000815250611857565b5050565b6112a5838383604051602401611223939291906129aa565b6040516020818303038152906040527f1c7ec448000000000000000000000000000000000000000000000000000000007bffffffffffffffffffffffffffffffffffffffffffffffffffffffff19166020820180517bffffffffffffffffffffffffffffffffffffffffffffffffffffffff838183161783525050505061187b565b505050565b60006002600083815260200190815260200160002060009054906101000a900473ffffffffffffffffffffffffffffffffffffffff169050919050565b80806113205750600073ffffffffffffffffffffffffffffffffffffffff168273ffffffffffffffffffffffffffffffffffffffff1614155b1561145457600061133084610ad9565b9050600073ffffffffffffffffffffffffffffffffffffffff168373ffffffffffffffffffffffffffffffffffffffff161415801561139b57508273ffffffffffffffffffffffffffffffffffffffff168173ffffffffffffffffffffffffffffffffffffffff1614155b80156113ae57506113ac81846108f9565b155b156113f057826040517fa9fbf51f0000000000000000000000000000000000000000000000000000000081526004016113e79190611c89565b60405180910390fd5b811561145257838573ffffffffffffffffffffffffffffffffffffffff168273ffffffffffffffffffffffffffffffffffffffff167f8c5be1e5ebec7d5bd14f71427d1e84f3dd0314c0f7b2291e5b200ac8c7c3b92560405160405180910390a45b505b836004600085815260200190815260200160002060006101000a81548173ffffffffffffffffffffffffffffffffffffffff021916908373ffffffffffffffffffffffffffffffffffffffff16021790555050505050565b6114b7838383611895565b61156b57600073ffffffffffffffffffffffffffffffffffffffff168373ffffffffffffffffffffffffffffffffffffffff160361152c57806040517f7e2732890000000000000000000000000000000000000000000000000000000081526004016115239190611d9f565b60405180910390fd5b81816040517f177e802f0000000000000000000000000000000000000000000000000000000081526004016115629291906129e8565b60405180910390fd5b505050565b600080600090507a184f03e93ff9f4daa797ed6e38ed64bf6a1f01000000000000000083106115ce577a184f03e93ff9f4daa797ed6e38ed64bf6a1f01000000000000000083816115c4576115c361297b565b5b0492506040810190505b6d04ee2d6d415b85acef8100000000831061160b576d04ee2d6d415b85acef810000000083816116015761160061297b565b5b0492506020810190505b662386f26fc10000831061163a57662386f26fc1000083816116305761162f61297b565b5b0492506010810190505b6305f5e1008310611663576305f5e10083816116595761165861297b565b5b0492506008810190505b612710831061168857612710838161167e5761167d61297b565b5b0492506004810190505b606483106116ab57606483816116a1576116a061297b565b5b0492506002810190505b600a83106116ba576001810190505b80915050919050565b606060008451036116e557604051806020016040528060008152509050611850565b6000826117175760036002865160046116fe9190612a11565b6117089190612864565b6117129190612a53565b61173e565b6003600286516117279190612864565b6117319190612a53565b600461173d9190612a11565b5b905060008167ffffffffffffffff81111561175c5761175b611e30565b5b6040519080825280601f01601f19166020018201604052801561178e5781602001600182028036833780820191505090505b50905060018501602082018788518901602081018051600082525b82841015611804576003840193508351603f8160121c168701518653600186019550603f81600c1c168701518653600186019550603f8160061c168701518653600186019550603f81168701518653600186019550506117a9565b80825289156118445760038c510660018114611827576002811461183a57611842565b603d6001870353603d6002870353611842565b603d60018703535b505b50505050505080925050505b9392505050565b6118618383611956565b61187661186c610b9e565b6000858585610f41565b505050565b6118928161188a610a4e611a4f565b63ffffffff16565b50565b60008073ffffffffffffffffffffffffffffffffffffffff168373ffffffffffffffffffffffffffffffffffffffff161415801561194d57508273ffffffffffffffffffffffffffffffffffffffff168473ffffffffffffffffffffffffffffffffffffffff16148061190e575061190d84846108f9565b5b8061194c57508273ffffffffffffffffffffffffffffffffffffffff1661193483610b61565b73ffffffffffffffffffffffffffffffffffffffff16145b5b90509392505050565b600073ffffffffffffffffffffffffffffffffffffffff168273ffffffffffffffffffffffffffffffffffffffff16036119c85760006040517f64a0ae920000000000000000000000000000000000000000000000000000000081526004016119bf9190611c89565b60405180910390fd5b60006119d683836000610bb8565b9050600073ffffffffffffffffffffffffffffffffffffffff168173ffffffffffffffffffffffffffffffffffffffff1614611a4a5760006040517f73c6ac6e000000000000000000000000000000000000000000000000000000008152600401611a419190611c89565b60405180910390fd5b505050565b611a5a819050919050565b611a62612a84565b565b6000604051905090565b600080fd5b600080fd5b60007fffffffff0000000000000000000000000000000000000000000000000000000082169050919050565b611aad81611a78565b8114611ab857600080fd5b50565b600081359050611aca81611aa4565b92915050565b600060208284031215611ae657611ae5611a6e565b5b6000611af484828501611abb565b91505092915050565b60008115159050919050565b611b1281611afd565b82525050565b6000602082019050611b2d6000830184611b09565b92915050565b600081519050919050565b600082825260208201905092915050565b60005b83811015611b6d578082015181840152602081019050611b52565b60008484015250505050565b6000601f19601f8301169050919050565b6000611b9582611b33565b611b9f8185611b3e565b9350611baf818560208601611b4f565b611bb881611b79565b840191505092915050565b60006020820190508181036000830152611bdd8184611b8a565b905092915050565b6000819050919050565b611bf881611be5565b8114611c0357600080fd5b50565b600081359050611c1581611bef565b92915050565b600060208284031215611c3157611c30611a6e565b5b6000611c3f84828501611c06565b91505092915050565b600073ffffffffffffffffffffffffffffffffffffffff82169050919050565b6000611c7382611c48565b9050919050565b611c8381611c68565b82525050565b6000602082019050611c9e6000830184611c7a565b92915050565b611cad81611c68565b8114611cb857600080fd5b50565b600081359050611cca81611ca4565b92915050565b60008060408385031215611ce757611ce6611a6e565b5b6000611cf585828601611cbb565b9250506020611d0685828601611c06565b9150509250929050565b600080600060608486031215611d2957611d28611a6e565b5b6000611d3786828701611cbb565b9350506020611d4886828701611cbb565b9250506040611d5986828701611c06565b9150509250925092565b600060208284031215611d7957611d78611a6e565b5b6000611d8784828501611cbb565b91505092915050565b611d9981611be5565b82525050565b6000602082019050611db46000830184611d90565b92915050565b611dc381611afd565b8114611dce57600080fd5b50565b600081359050611de081611dba565b92915050565b60008060408385031215611dfd57611dfc611a6e565b5b6000611e0b85828601611cbb565b9250506020611e1c85828601611dd1565b9150509250929050565b600080fd5b600080fd5b7f4e487b7100000000000000000000000000000000000000000000000000000000600052604160045260246000fd5b611e6882611b79565b810181811067ffffffffffffffff82111715611e8757611e86611e30565b5b80604052505050565b6000611e9a611a64565b9050611ea68282611e5f565b919050565b600067ffffffffffffffff821115611ec657611ec5611e30565b5b611ecf82611b79565b9050602081019050919050565b82818337600083830152505050565b6000611efe611ef984611eab565b611e90565b905082815260208101848484011115611f1a57611f19611e2b565b5b611f25848285611edc565b509392505050565b600082601f830112611f4257611f41611e26565b5b8135611f52848260208601611eeb565b91505092915050565b60008060008060808587031215611f7557611f74611a6e565b5b6000611f8387828801611cbb565b9450506020611f9487828801611cbb565b9350506040611fa587828801611c06565b925050606085013567ffffffffffffffff811115611fc657611fc5611a73565b5b611fd287828801611f2d565b91505092959194509250565b60008060408385031215611ff557611ff4611a6e565b5b600061200385828601611cbb565b925050602061201485828601611cbb565b9150509250929050565b600067ffffffffffffffff82111561203957612038611e30565b5b61204282611b79565b9050602081019050919050565b600061206261205d8461201e565b611e90565b90508281526020810184848401111561207e5761207d611e2b565b5b612089848285611edc565b509392505050565b600082601f8301126120a6576120a5611e26565b5b81356120b684826020860161204f565b91505092915050565b600080604083850312156120d6576120d5611a6e565b5b600083013567ffffffffffffffff8111156120f4576120f3611a73565b5b61210085828601612091565b925050602083013567ffffffffffffffff81111561212157612120611a73565b5b61212d85828601612091565b9150509250929050565b7f4e487b7100000000000000000000000000000000000000000000000000000000600052602260045260246000fd5b6000600282049050600182168061217e57607f821691505b60208210810361219157612190612137565b5b50919050565b60006060820190506121ac6000830186611c7a565b6121b96020830185611d90565b6121c66040830184611c7a565b949350505050565b7f546f6b656e204944206f7574206f662072616e67650000000000000000000000600082015250565b6000612204601583611b3e565b915061220f826121ce565b602082019050919050565b60006020820190508181036000830152612233816121f7565b9050919050565b7f4e487b7100000000000000000000000000000000000000000000000000000000600052603260045260246000fd5b600081905092915050565b7f697066733a2f2f00000000000000000000000000000000000000000000000000600082015250565b60006122aa600783612269565b91506122b582612274565b600782019050919050565b60008190508160005260206000209050919050565b600081546122e281612166565b6122ec8186612269565b94506001821660008114612307576001811461231c5761234f565b60ff198316865281151582028601935061234f565b612325856122c0565b60005b8381101561234757815481890152600182019150602081019050612328565b838801955050505b50505092915050565b60006123638261229d565b915061236f82846122d5565b915081905092915050565b7f7b226e616d65223a202200000000000000000000000000000000000000000000600082015250565b60006123b0600a83612269565b91506123bb8261237a565b600a82019050919050565b60006123d182611b33565b6123db8185612269565b93506123eb818560208601611b4f565b80840191505092915050565b7f202d2d204e465420233a20000000000000000000000000000000000000000000600082015250565b600061242d600b83612269565b9150612438826123f7565b600b82019050919050565b7f222c20226465736372697074696f6e223a2022416e2065706963204e4654222c60008201527f2022696d616765223a2022000000000000000000000000000000000000000000602082015250565b600061249f602b83612269565b91506124aa82612443565b602b82019050919050565b7f227d000000000000000000000000000000000000000000000000000000000000600082015250565b60006124eb600283612269565b91506124f6826124b5565b600282019050919050565b600061250c826123a3565b915061251882866123c6565b915061252382612420565b915061252f82856123c6565b915061253a82612492565b915061254682846123c6565b9150612551826124de565b9150819050949350505050565b7f646174613a6170706c69636174696f6e2f6a736f6e3b6261736536342c000000600082015250565b6000612594601d83612269565b915061259f8261255e565b601d82019050919050565b60006125b582612587565b91506125c182846123c6565b915081905092915050565b60006020601f8301049050919050565b600082821b905092915050565b6000600883026126197fffffffffffffffffffffffffffffffffffffffffffffffffffffffffffffffff826125dc565b61262386836125dc565b95508019841693508086168417925050509392505050565b6000819050919050565b600061266061265b61265684611be5565b61263b565b611be5565b9050919050565b6000819050919050565b61267a83612645565b61268e61268682612667565b8484546125e9565b825550505050565b600090565b6126a3612696565b6126ae818484612671565b505050565b5b818110156126d2576126c760008261269b565b6001810190506126b4565b5050565b601f821115612717576126e8816122c0565b6126f1846125cc565b81016020851015612700578190505b61271461270c856125cc565b8301826126b3565b50505b505050565b600082821c905092915050565b600061273a6000198460080261271c565b1980831691505092915050565b60006127538383612729565b9150826002028217905092915050565b61276c82611b33565b67ffffffffffffffff81111561278557612784611e30565b5b61278f8254612166565b61279a8282856126d6565b600060209050601f8311600181146127cd57600084156127bb578287015190505b6127c58582612747565b86555061282d565b601f1984166127db866122c0565b60005b82811015612803578489015182556001820191506020850194506020810190506127de565b86831015612820578489015161281c601f891682612729565b8355505b6001600288020188555050505b505050505050565b7f4e487b7100000000000000000000000000000000000000000000000000000000600052601160045260246000fd5b600061286f82611be5565b915061287a83611be5565b925082820190508082111561289257612891612835565b5b92915050565b600081519050919050565b600082825260208201905092915050565b60006128bf82612898565b6128c981856128a3565b93506128d9818560208601611b4f565b6128e281611b79565b840191505092915050565b60006080820190506129026000830187611c7a565b61290f6020830186611c7a565b61291c6040830185611d90565b818103606083015261292e81846128b4565b905095945050505050565b60008151905061294881611aa4565b92915050565b60006020828403121561296457612963611a6e565b5b600061297284828501612939565b91505092915050565b7f4e487b7100000000000000000000000000000000000000000000000000000000600052601260045260246000fd5b600060608201905081810360008301526129c48186611b8a565b90506129d36020830185611d90565b6129e06040830184611c7a565b949350505050565b60006040820190506129fd6000830185611c7a565b612a0a6020830184611d90565b9392505050565b6000612a1c82611be5565b9150612a2783611be5565b9250828202612a3581611be5565b91508282048414831517612a4c57612a4b612835565b5b5092915050565b6000612a5e82611be5565b9150612a6983611be5565b925082612a7957612a7861297b565b5b828204905092915050565b7f4e487b7100000000000000000000000000000000000000000000000000000000600052605160045260246000fdfe416e204e465420772f20494420257320686173206265656e206d696e74656420746f2025734142434445464748494a4b4c4d4e4f505152535455565758595a6162636465666768696a6b6c6d6e6f707172737475767778797a303132333435363738392b2fa264697066735822122001afcf513d1ac6d7cca4454eab270fb05034cbd0e7a7e88a2bee6fb14ec8798264736f6c634300081c0033",
    "linkReferences": {},
    "deployedLinkReferences": {}
}